S00E0000752D626F6F742E73726563C0
S31581700000B80000EA14F09FE514F09FE514F09FE5BF
S3158170001014F09FE514F09FE514F09FE514F09FE5C9
S3158170002060007081C0007081200170818001708153
S31581700030E001708140027081A0027081EFBEADDEF9
S31581700040DEC0AD0B0000A0E10000A0E10000A0E1E0
S315817000500000A0E10000A0E10000A0E10000A0E1A5
S3158170006028D01FE500E08DE500E04FE104E08DE5E5
S3158170007013D0A0E30DF069E10FE0A0E10EF0B0E1DD
S3158170008048D04DE2FF1F8DE850201FE50C0092E8A5
S3158170009048008DE234508DE20E10A0E10F0085E8A4
S315817000A00D00A0E1FBAE00EB0000A0E10000A0E135
S315817000B00000A0E10000A0E10000A0E10000A0E145
S315817000C088D01FE500E08DE500E04FE104E08DE525
S315817000D013D0A0E30DF069E10FE0A0E10EF0B0E17D
S315817000E048D04DE2FF1F8DE8B0201FE50C0092E8E5
S315817000F048008DE234508DE20E10A0E10F0085E844
S315817001000D00A0E1B3AE00EB0000A0E10000A0E11C
S315817001100000A0E10000A0E10000A0E10000A0E1E4
S31581700120E8D01FE500E08DE500E04FE104E08DE564
S3158170013013D0A0E30DF069E10FE0A0E10EF0B0E11C
S3158170014048D04DE2FF1F8DE810211FE50C0092E823
S3158170015048008DE234508DE20E10A0E10F0085E8E3
S315817001600D00A0E1AFAE00EB0000A0E10000A0E1C0
S315817001700000A0E10000A0E10000A0E10000A0E184
S3158170018048D11FE500E08DE500E04FE104E08DE5A3
S3158170019013D0A0E30DF069E10FE0A0E10EF0B0E1BC
S315817001A048D04DE2FF1F8DE870211FE50C0092E863
S315817001B048008DE234508DE20E10A0E10F0085E883
S315817001C00D00A0E19BAE00EB0000A0E10000A0E174
S315817001D00000A0E10000A0E10000A0E10000A0E124
S315817001E0A8D11FE500E08DE500E04FE104E08DE5E3
S315817001F013D0A0E30DF069E10FE0A0E10EF0B0E15C
S3158170020048D04DE2FF1F8DE8D0211FE50C0092E8A2
S3158170021048008DE234508DE20E10A0E10F0085E822
S315817002200D00A0E1B7AE00EB0000A0E10000A0E1F7
S315817002300000A0E10000A0E10000A0E10000A0E1C3
S3158170024008D21FE500E08DE500E04FE104E08DE521
S3158170025013D0A0E30DF069E10FE0A0E10EF0B0E1FB
S3158170026048D04DE2FF1F8DE830221FE50C0092E8E1
S3158170027048008DE234508DE20E10A0E10F0085E8C2
S315817002800D00A0E187AE00EB0000A0E10000A0E1C7
S315817002900000A0E10000A0E10000A0E10000A0E163
S315817002A068D21FE500E08DE500E04FE104E08DE561
S315817002B013D0A0E30DF069E10FE0A0E10EF0B0E19B
S315817002C048D04DE2FF1F8DE890221FE50C0092E821
S315817002D048008DE234508DE20E10A0E10F0085E862
S315817002E00D00A0E15BAE00EB160000EA00000FE1A5
S315817002F01F00C0E3D30080E300F029E1010000EB29
S315817003006E0000EB1EFF2FE10000A0E37AFF17EE6F
S31581700310FDFFFF1A170F08EE150F07EE100F11EE7E
S31581700320030CC0E38700C0E3020AC0E3020080E3E6
S31581700330010A80E3100F01EE0EC0A0E1530000EBBD
S315817003400CE0A0E10EF0A0E1E7FFFFEA10402DE995
S3158170035060AE00EB3E0300EB5B0300EB150000EB38
S315817003600000A0E3170F07EE1080BDE80030A0E310
S315817003707EFF17EEFDFFFF1A9A3F07EE1EFF2FE1F4
S3158170038070402DE90040A0E10150A0E10C0300EB23
S31581700390000050E37080BD08050054E10200003A08
S315817003A00030A0E39A3F07EE7080BDE83E4F07EEBE
S315817003B0204084E2F7FFFFEA1EFF2FE180B44F46AB
S315817003C080B40122044B52425A61083200201A616C
S315817003D004BC914680BC7047000CC201104B30B58D
S315817003E0CE4600B598690F49C0432BF065FC4946E6
S315817003F04B46B431B0330A68824209D80A681C68A0
S31581700400821A12191A600860186804BC914630BD48
S315817004100C68054D1A6852191218121BF2E7C046FC
S31581700420000CC201C05D00000CBB020030B5CE4627
S3158170043000B50400FFF7D2FF001B04BC914630BDA6
S315817004400C49182370B5CE4606005E4300B58B699C
S315817004500125DB43002E02DC04BC914670BD8A699E
S31581700460D243934203D29B1A9E191300F2E7AC1AB8
S31581700470E318F9E7000CC2014B4608B5FFF7AEFFEA
S31581700480002104BC914600BDFA20800070470000AF
S3158170049018D09FE507D0CDE3C8D04DE207D0CDE324
S315817004A00D90A0E100502DE922AE00EB0090BDE8E1
S315817004B0307F000000000000000000000000000096
S315817004C078009FE50700C0E300D0A0E109AE00EB9C
S315817004D000D0A0E10090A0E10EAE00EB0000A0E399
S315817004E0D8AD00EB400099E50700C0E300D0A0E1EC
S315817004F0009099E5C89049E20CE08FE2440099E555
S3158170050000E08EE0300099E5210100EA160100EBEA
S315817005107BFFFFEB28009FE528309FE50010A0E365
S31581700520002053E00D0000EBCEAD00EBB9AD00EBD2
S315817005300900A0E1301099E50CE09FE51EFF2FE1DF
S31581700540307F0000D8DC73813C8E7781F5AA70810B
S3158170055000000000000000000000000000000000A4
S31581700560033010E200C0A0E11E00001A011481E17F
S31581700570011881E10130A0E1100052E30F0000BA49
S3158170058000412DE90180A0E101E0A0E1402052E225
S315817005900A41ACA80A41ACA80A41ACA80A41ACA8E8
S315817005A0F9FFFFCA0081BD08200012E30A41AC1829
S315817005B00A41AC18100012E30A41AC180041BDE83B
S315817005C0080012E30A00AC18040012E304108C14BC
S315817005D0020012E30110CC140110CC14010012E355
S315817005E00110CC141EFF2FE1042052E2F7FFFFBAEF
S315817005F0020053E30110CCB40110CCD40110CCE4C9
S31581700600032082E0D8FFFFEA010050E10EF0A001DD
S3158170061011402DE9042052E22B0000BA03C010E28A
S3158170062000F0D1F53000001A03C011E23A00001AC9
S315817006301C2052E2E0012DE90C0000BA00F0D1F5E0
S31581700640602052E21CF0D1F5020000BA3CF0D1F57F
S315817006505CF0D1F57CF0D1F5F851B1E8202052E209
S31581700660F851A0E8FAFFFFAA600072E3F9FFFFAACA
S315817006701CC012E220C06CE20CF08F10110000EAEF
S315817006800000A0E1043091E4044091E4045091E4C7
S31581700690046091E4047091E4048091E404E091E44F
S315817006A00CF08FE00000A0E10000A0E1043080E44E
S315817006B0044080E4045080E4046080E4047080E443
S315817006C0048080E404E080E4E001BDE8822FB0E13B
S315817006D00130D1140140D12401C0D1240130C0141C
S315817006E00140C02401C0C0241180BDE804C06CE201
S315817006F002005CE30130D1C40140D1A401E0D1E4B0
S315817007000130C0C40140C0A40C2052E001E0C0E4B5
S31581700710EDFFFFBA03C011E2C4FFFF0A0310C1E304
S3158170072002005CE304E091E42C00000A570000CAE1
S315817007301C2052E21F0000BAE0032DE900F0D1F5CA
S31581700740602052E21CF0D1F5020000BA3CF0D1F57E
S315817007505CF0D1F57CF0D1F5F000B1E82E34A0E1F2
S31581700760202052E20053B1E8043C83E12444A0E1A5
S31581700770054C84E12554A0E1065C85E12664A0E1FF
S31581700780076C86E12774A0E1087C87E12884A0E163
S31581700790098C88E12994A0E10C9C89E12CC4A0E1A3
S315817007A00ECC8CE1F813A0E8E9FFFFAA600072E332
S315817007B0E8FFFFAAE003BDE81CC012E20500000A4B
S315817007C02E34A0E104E091E404C05CE20E3C83E146
S315817007D0043080E4F9FFFFCA031041E2BAFFFFEAF1
S315817007E01C2052E21F0000BAE0032DE900F0D1F51A
S315817007F0602052E21CF0D1F5020000BA3CF0D1F5CE
S315817008005CF0D1F57CF0D1F5F000B1E82E38A0E13D
S31581700810202052E20053B1E8043883E12448A0E1F4
S31581700820054884E12558A0E1065885E12668A0E14E
S31581700830076886E12778A0E1087887E12888A0E1B2
S31581700840098888E12998A0E10C9889E12CC8A0E1F2
S315817008500EC88CE1F813A0E8E9FFFFAA600072E385
S31581700860E8FFFFAAE003BDE81CC012E20500000A9A
S315817008702E38A0E104E091E404C05CE20E3883E195
S31581700880043080E4F9FFFFCA021041E28EFFFFEA6D
S315817008901C2052E21F0000BAE0032DE900F0D1F569
S315817008A0602052E21CF0D1F5020000BA3CF0D1F51D
S315817008B05CF0D1F57CF0D1F5F000B1E82E3CA0E189
S315817008C0202052E20053B1E8043483E1244CA0E144
S315817008D0054484E1255CA0E1065485E1266CA0E19E
S315817008E0076486E1277CA0E1087487E1288CA0E102
S315817008F0098488E1299CA0E10C9489E12CCCA0E142
S315817009000EC48CE1F813A0E8E9FFFFAA600072E3D8
S31581700910E8FFFFAAE003BDE81CC012E20500000AE9
S315817009202E3CA0E104E091E404C05CE20E3483E1E4
S31581700930043080E4F9FFFFCA011041E262FFFFEAE9
S315817009400DC0A0E1F05F80E80000A0E31EFF2FE1FB
S31581700950F05F90E80CD0A0E10100A0E1000050E3C7
S315817009600000001A0100A0E31EFF2FE1300099E517
S31581700970102F11EE022A12E20010A00364109F1547
S31581700980FC05B0E8FC05A1E8FC05B0E8FC05A1E82A
S315817009901EFF2FE150109FE5014050E01000000AC4
S315817009A048209FE5000CB1E8000CA0E8020051E1F7
S315817009B0FBFFFF3A38209FE538309FE50300B2E8A8
S315817009C0FF1001E2170051E30300001A040080E072
S315817009D0001090E5041081E0001080E5030052E17B
S315817009E0F5FFFF3A1EFF2FE10000FFFF00007081C7
S315817009F0D8DC7381D8DC7381D06174814B461A6877
S31581700A0008B584B06946936CD26C009300230193C8
S31581700A10029202AA039301330BF04AF804B004BC24
S31581700A20914600BD4B4608B5074B6946C9184B467A
S31581700A301A681B68926CDB6CD218521A21F016FCFC
S31581700A4004BC914600BDC04600F0FFFF70470000B0
S31581700A504B4670B51B68CE4605000C0000B583B059
S31581700A601B6C066E1C48019308F004FA002809D0A5
S31581700A7001AA102127F032FB002824DB019917483F
S31581700A8027F060FA80230F209B001C4008F0B1FA92
S31581700A901349002C00D11349134827F053FAAB2020
S31581700AA008F0A7FAFFF7D2FFC020C00014F056FAFB
S31581700AB02BF09AF82B6F002B09D0EA6E002C02D19D
S31581700AC001992000B04703B004BC914670BD4B4676
S31581700AD01B685A6CF2E7C04618E772811FE772810C
S31581700AE001E7728108A2738144E7728170470000C1
S31581700AF0F0B5CE4600B5060082B0404808F0BAF926
S31581700B00336F0700002B09D0300010F07AF8002877
S31581700B104AD03B4827F016FA26F0EAF94A46394D0B
S31581700B2012686846546C384AA36062600522E36035
S31581700B3023612300143322602B6000F0C5FD334B93
S31581700B40A36104236361009BE361019B236223009C
S31581700B5024332B604B461B68002F2AD148462B685D
S31581700B60026804242A491C605960916CD26CD960E0
S31581700B70716F9A601A0010322A60002932D0B26F72
S31581700B80002A2FD0006823481C615861521A9961D6
S31581700B90DA6120332B602800FFF7A8FF4B460022CD
S31581700BA01B682B685A601A6002B004BC9146F0BD0E
S31581700BB001373B78202BFBD0002BCFD0164B3800DA
S31581700BC0A36226F04FFA2B680D30800839001860C1
S31581700BD00833180026F0E8F92B681A6892009B187A
S31581700BE02B60BBE7716E0029D5D0B26E002AD2D048
S31581700BF000680848586104201861C7E7D508738171
S31581700C005DE77281D8DC73810100415406004154DD
S31581700C10020041540500425409004154F0B5CE4654
S31581700C20C02700B505001E00074018D180246400D6
S31581700C30044007D03C001800FFF75AFF200004BC1F
S31581700C409146F0BDC023DB00184204D029003000E4
S31581700C50FFF7FEFEF2E73000FFF74AFFF6E7012461
S31581700C606442EBE730B50400C06ECE4600B500280D
S31581700C700CD0094924F02BFA002807DAE06EFFF7C9
S31581700C80BDFE002802D005480EF078FC2AF0ACFF34
S31581700C9004BC914630BDC0467DE7728185E772811D
S31581700CA04A46036E04B5C06E984704BC914600BD32
S31581700CB030B5841D431DE47FDB7F24021A4D1C43AE
S31581700CC0C31DDB7F1B041C4303000833DB7F1B06BC
S31581700CD023430124AB4225D10400030029342833F0
S31581700CE024781B7824021C4303002A331B781B0447
S31581700CF01C4303002B331B781B06234300240B6094
S31581700D00010003002D3109782C331B7809021943B0
S31581700D1003002E332F301B781B04194303781B066F
S31581700D200B431360200030BD18286F0180B44F4685
S31581700D303A6C002080B4FA633A6C103A3A6404BC17
S31581700D40914680BC7047000080B44F46FB6B002093
S31581700D50034A083380B4136004BC914680BC7047E3
S31581700D604000708170470020704700004B460248F2
S31581700D7008B527F048F9C0469CE17281F0B5CE4638
S31581700D8000B5A2B002AD0400802228002E492AF057
S31581700D90CBFFA26BE16B2D48266C27F0D3F84B46BF
S31581700DA05A68370F3F07D20708D5596C5A6CA36BAF
S31581700DB027489A1AE36B591A27F0C4F8E36A226BAB
S31581700DC0616B244827F0BEF8236A626AA16A224859
S31581700DD027F0B8F82369A269E16900931F486369AE
S31581700DE027F0B0F82368E168A26800931C486368AD
S31581700DF027F0A8F84E21002F00DB20315A2273008C
S31581700E0000D420324323B00000D420335620F6001C
S31581700E1000D420300090134827F094F8236C12493F
S31581700E201A0600D51149104A580600D50F4A1F2057
S31581700E3003400F489B0000900E48EB5827F082F8CC
S31581700E4022B004BC9146F0BD60BE7281C755738174
S31581700E50C1557381E95573810D567381315673818D
S31581700E606156738191567381A99873817402738166
S31581700E7008A27381A156738130B5CE4600B5040040
S31581700E801DF0EAF8054827F05DF8E36B2000043B16
S31581700E90E363FFF773FFFFF769FFC04679207381BC
S31581700EA030B5CE4600B504001DF0D6F8054827F05A
S31581700EB049F8E36B2000043BE363FFF75FFFFFF7BD
S31581700EC055FFC0460420738130B5CE4600B5040007
S31581700ED01DF0C2F8054827F035F8E36B2000083B12
S31581700EE0E363FFF74BFFFFF741FFC046371F7381FF
S31581700EF030B5CE4600B504001DF0AEF8054827F032
S31581700F0021F8E36B2000083BE363FFF737FFFFF7B8
S31581700F102DFFC046E309738130B5CE4600B5040016
S31581700F201DF09AF8054827F00DF8E36B2000083B11
S31581700F30E363FFF723FFFFF719FFC046D21E738164
S31581700F4030B5CE4600B504001DF086F8054826F00A
S31581700F50F9FFE36B2000083BE363FFF70FFFFFF7B1
S31581700F6005FFC0462F12738130B5CE4600B5040099
S31581700F701DF072F8054826F0E5FFE36B2000083B0B
S31581700F80E363FFF7FBFEFFF7F1FEC0463412738110
S31581700F907047000010B507480EF0F0FA064826F043
S31581700FA04DF9FFF7E0FEFFF7F3FF002000F0E6F85A
S31581700FB0002010BDC01F738150C30000011080E0F6
S31581700FC0EEFCFFEA013080E11F0013E30600000AA0
S31581700FD00120A0E110402DE90010A0E110009FE5ED
S31581700FE024AB00EB0000A0E31080BDE80100A0E314
S31581700FF01EFF2FE16CEA72811EFF2FE11EFF2FE12A
S31581701000C03099E5031B81E3001A81E1001183E702
S315817010101EFF2FE110402DE9004099E5804184E063
S31581701020482094E5222AA0E14C3094E5481094E555
S31581701030233AA0E1213A83E0020053E11080BD9802
S315817010400200A0E11E10A0E3ECFFFFEB012082E21B
S31581701050F4FFFFEA103F11EE103F11EE013AC3E340
S31581701060103F01EE1EFF2FE110402DE9104F11EE5A
S31581701070014014E21000001ADEFFFFEB0400A0E1CC
S315817010801210A0E3014084E2DCFFFFEB010A54E316
S31581701090F9FFFF1A0000A0E3DDFFFFEBC03099E591
S315817010A0103F02EE0030E0E3103F03EED2FFFFEB1C
S315817010B0103F11EE013083E3103F01EE103F11EEC8
S315817010C0043083E3103F01EE1080BDE8103F11EECE
S315817010D0040013E31EFF2F0110402DE9104F11EE0E
S315817010E00540C4E3A0FCFFEB104F01EE1080BDE814
S315817010F0100F11EE2001A0E1010000E21EFF2FE129
S315817011004B4608B500F051F8FFF758F90521802054
S3158170111000F080F80521812000F07CF80121812082
S3158170112000F0BAF800F06EFA04BC914600BD00007A
S315817011304B46082208B504200E4926F00AF8002885
S3158170114013D12823197803290CD808002AF0BCFDFD
S315817011500F020608042004BC914600BD0220FAE7FE
S315817011600820F8E7044826F04EFF0C20F3E70120AB
S31581701170F1E7C046389E7381419E7381494602B4B8
S315817011800122034B5A619A61024A1A61FEE7C0468F
S31581701190A00CC201AF1400004B4608B52AF004FDBD
S315817011A004BC914600BD7047704710B500F084F954
S315817011B0FFF7FAFF002010BD10B502480EF0DEF978
S315817011C0002010BD21507381064B1B680360064B4E
S315817011D01B684360054B1B688360054B1B68C36046
S315817011E0002070470038C2010438C2010838C20134
S315817011F00C38C20110B58C00C9061C23890F1C409E
S315817012008900A24041180F200B68A04083431A437E
S315817012100A6010BD70B5242345090A001900694317
S315817012200400054BC8180A2D01D8044BC818210033
S31581701230FFF7E0FF70BDC046742AF0010008C20155
S31581701240CB069B0F9B00C01800681C238900194030
S315817012500D3BC8401840704770B51E234609C506B8
S315817012604000242418400A4B22007243ED0FD31894
S315817012700A2E01D8074BD318AD0014335B1903249A
S315817012801A68844081400020A2431143196070BD61
S31581701290742AF0010008C20170B51E234609C5067D
S315817012A04000242418400A4B22007243ED0FD31854
S315817012B00A2E01D8074BD318AD001C335B19032452
S315817012C01A68844081400020A2431143196070BD21
S315817012D0742AF0010008C20110B50378502B0DD124
S315817012E04378413B1A06120E192A07D85C010230DF
S315817012F00A22002126F013FF201810BD01204042DA
S31581701300FBE70000F0B587B005900598394A0493DC
S3158170131024F0AEFD0400051E68DB002505982A00C1
S315817013200095354B21000AF01FFA0200A84254D06D
S3158170133003950A2809DD01230393142805DDDB183B
S3158170134003931E2801DD01330393059800232B4AED
S31581701350210023F0CAFD0126051E18D105982B00A0
S31581701360274A210023F0C1FD2E0000280FD1254A7E
S315817013702B000598210023F0B8FD0236021E06D196
S31581701380059821000092204B0AF0EEF9060000259F
S3158170139000230598009321002B001C4A23F076FFC9
S315817013A0002809D1059F2B0000902100184A38002A
S315817013B023F06CFF002819D0FFF78EFF071E0ADB1A
S315817013C00499FFF727FF03993800FFF745FF31002E
S315817013D03800FFF761FF0135DAE70423059800933A
S315817013E021000C4B0AF0C0F90390AEE7280007B0D4
S315817013F0F0BDC046599E7381639E7381829E73814F
S315817014008F9E73819C9E7381AB9E7381BA9E73810D
S315817014101A6F7381729E738130B5CE46204D00B539
S31581701420280017F0C9F81F4C606000281EDA280062
S3158170143017F0C2F8A060002826DA280017F0BCF8E9
S31581701440E06000280DDB184916F0EDFD002818D1F3
S31581701450E06816F02FFE002813D10121E068FFF7AE
S315817014601BFF124B00201A681A600AE0104916F0A9
S31581701470DAFD002805D10100606816F035FE002876
S31581701480D5D004BC914630BD0A4916F0CCFD0028F2
S31581701490F7D1A06816F00EFE0028CED0F1E7C046CF
S315817014A008A27381E4AF7381DF9F7381CC00C2011F
S315817014B0C99F7381D29F73810B4A0C4B1A608022AC
S315817014C0520519681142FCD00949C622094B92010D
S315817014D01A6080230A685B031A430A60064A116898
S315817014E00B4313607047C046001804902800C201F0
S315817014F06800C2015400C201D002C201074B1B6849
S31581701500D804074AC00E0130110041439806800FF6
S31581701510013003004B4318007047C0462800C20152
S3158170152000366E0170B5CE4600B595B01122002198
S3158170153005000FA82AF0F0FA07A8FFF745FE041EEA
S3158170154047D1079B002B44D00C2208A925F074FC47
S31581701550030242D002260A90254922000BA826F062
S31581701560E5FC0BA9280023F0BEFD00281CD0002CB9
S3158170157037D120490BA825F017FD0BA807F07AFC07
S31581701580002811D1230105A933430BA80B70079B42
S3158170159003934B700A9B1A0E4B718A701A0CCA7020
S315817015A01A0A0A7127F06AFF0134042CD4D1124CBD
S315817015B0200007F05FFC00280BD10A9B11210F4A8E
S315817015C00FA80093079B26F09CFC0FA9200007F0BB
S315817015D0F7FA15B004BC914670BD80231B0418437D
S315817015E0B8E7220006490BA826F0A0FCC5E7C046DD
S315817015F05555738160557381725573817A5573812F
S3158170160068557381704700004B46F0B51B68CE46AE
S31581701610FA26144AB600144D00B55A64280016F09D
S31581701620CBFF1249040016F0FEFC2000F624FF342D
S31581701630012116F059FD013C002C0ED1280016F0BF
S31581701640BBFF0B49050016F0EEFC2800012116F050
S315817016504BFD200004BC9146F0BD300025F0EEFDB7
S31581701660E9E7C0460001008008A2738151E4728166
S3158170167059E4728180204A46000604B501000FF054
S3158170168059FD4B465863002004BC914600BD30B568
S31581701690A0240225CE4600B520002900FFF7BAFDA9
S315817016A001212000FFF7F8FD200029000134FFF7A2
S315817016B0D3FDA62CF0D1002016F09AF943425841F9
S315817016C0404204BC914630BD30B5CE4600B504006B
S315817016D0074807F0CFFB002808D01022002126F09A
S315817016E049FD6160206004BC914630BD6060F9E758
S315817016F07255738170B5CE46274E002100B585B07F
S31581701700300007F05DFA254D0021280007F058FA60
S31581701710234C0021200007F053FAFFF709FD0C28AE
S315817017202FD12049300007F04BFA03221E4914202D
S3158170173025F00FFD002806D1C27D022A0DD0022127
S315817017401A4826F0FFFB4B46D86DFFF7EBFEFFF785
S3158170175063FE05B004BC914670BD81690029F2D0E3
S31581701760C269002A09D001230390029001900093E7
S3158170177009330F4825F07EF8E5E7280007F050FA1F
S31581701780E1E70C49012802D00228DCD10549200005
S3158170179007F016FAD7E7C0460843738113437381FE
S315817017A02243738143A273812E4373813243738142
S315817017B0B8C973818DE172814B4608B5FFF7B2FE68
S315817017C0002004BC914600BD10B5030008001100CD
S315817017D0984710BD70B514001D00012A17DD1022BF
S315817017E00021586826F048FC01000600094826F059
S315817017F0A9FB611E2A1D3000FFF7E6FF0400010078
S315817018000548631E9C4126F09DFB200070BD012416
S315817018106442FAE77012738198127381F0B5CE467D
S3158170182000B51C0088B0531E06000F000493231D5B
S315817018300593531E1500002B34DD102207A96068AD
S3158170184026F01AFC079B1B78002B2BD03A2B29D0BC
S31581701850232B27D00922184960680FF0A7FE230031
S31581701860AA1E083300280ED0C168012900D106311D
S315817018701248CC070DD404008C342468A14208DC4C
S315817018800F4826F05FFB0120404208B004BC9146A8
S31581701890F0BD00240190029400913900300009F066
S315817018A00BFAF2E70123049A0293044B0193054BD9
S315817018B00093059BF1E7C046B0B37381E0E673810F
S315817018C0CE0473811F07000030B5CE4600B50C007B
S315817018D0044807F0CFFA21000FF0BCFD04BC914695
S315817018E030BDC046B602738130B5CE46010000B5B3
S315817018F00400204826F026FB20000FF003F805002F
S31581701900012832D11C480DF039FE2368FF2000046E
S31581701910190E1A060A43190201401B0A0A43FF214E
S31581701920090216480B401343154A934205D120008C
S315817019300EF0B0FD002806D112480DF01FFE28006A
S3158170194004BC914630BD20000EF002FF0E480DF0AA
S3158170195015FE20000EF0C3FD002801D10B48ECE77F
S315817019600B4800250DF00AFEE9E70A4801250DF0BE
S3158170197005FEE4E76F39738190397381A739738175
S3158170198056190527BC397381D4397381EF397381BF
S31581701990003A7381043A7381F0B5CE4600B5012A57
S315817019A008DC0E4B1868FFF79FFF0600300004BCF9
S315817019B09146F0BD92001C1D9D18002601271022AC
S315817019C00021206826F058FBFFF78EFF002800D093
S315817019D03E000434AC42F2D1E8E7C0468CC97381CB
S315817019E070B5CE4600B5050083B00E000E4807F07F
S315817019F041FA002804D1002003B004BC914670BD21
S31581701A000A4925F005FB041EF5D1094B0190094859
S31581701A101968009626F096FA6B46012221002800F5
S31581701A20FFF7FCFEE8E7C046E6E97281F0E972816C
S31581701A308CC97381F4E97281F7B50500074C084842
S31581701A40084E01930B00241A0092A7102A003C00BD
S31581701A50744321000FF012FEFEBDC04660D47381BF
S31581701A60D8CB7381B76DDBB600B5B3B0C822694682
S31581701A70002025F07FF826F065FA04480DF07EFD8A
S31581701A8003480DF07BFD002033B000BD06237381C2
S31581701A908C237381F0B5050087B010000C00160099
S31581701AA01F0014F01DF80390032D00D969E02800FA
S31581701AB02AF00AF92B2B023803226349606825F0D4
S31581701AC0B4FA051E05D1300014F054F8280007B019
S31581701AD0F0BD03225D49606825F0A7FA00280DD113
S31581701AE03968300014F066F8002801D10025EDE7D9
S31581701AF00399574826F026FA0125E7E704225549C6
S31581701B00606825F092FA051E02D001256D42DDE7E7
S31581701B10300013F0ECFF0028E8D003994C4826F08A
S31581701B2011FAD3E749490322606825F07EFA011ECE
S31581701B300FD10A22A06826F09FFA010004003000B6
S31581701B4014F054F8051ED7D13C60434826F0FAF953
S31581701B50BCE740490422606825F067FA011ED4D13A
S31581701B60A0680A2226F088FA04000100300013F07A
S31581701B70E8FF0028BAD022000399384826F0E2F9A6
S31581701B80BAE73749606825F043FA051E2DD1010001
S31581701B901022A06826F070FA290005901022E0685C
S31581701BA026F06AFA290004901022206926F064FAD8
S31581701BB000900500049B3A6803992A4826F0C2F979
S31581701BC0059B3000049A00932B00396814F080F8D5
S31581701BD0254A0400854200D0244A254821002D1BC0
S31581701BE06B1E9D4126F0AEF970E72249606825F03B
S31581701BF00FFA051E89D101001022A06826F03CFAE1
S31581701C00290005901022E06826F036FA29000490A2
S31581701C101022206926F030FA00900500049B3A68FC
S31581701C200399154826F08EF9059B3000049A009326
S31581701C302B00396814F064F80B4A0400854200D091
S31581701C400A4A21000D48CAE7CFE1728136587381FD
S31581701C50D3E1728138857381EDE1728108E2728197
S31581701C60E27C738125E27281C6E17281C9E17281FA
S31581701C7055E272815E6173816AE272819BE27281E1
S31581701C8070B50500294817F031FE060028000EF060
S31581701C9039FE0400012843D12B68FF200004190EF8
S31581701CA01A060A43190201401B0A0A43FF210902D7
S31581701CB01F480B4013431F4A934205D128000EF0EB
S31581701CC0E9FB002804D11C480DF058FC200070BD3A
S31581701CD0002E06D028000EF002FC002801D117488C
S31581701CE0F2E7AB7F1648062BEED12B6C2800FF25C9
S31581701CF040302D041A0E190611431A022A401B0A06
S31581701D001143FF2212021340194301D10D48DBE7BB
S31581701D1002680430002AFBD10FF0A8FB0400D5E7D6
S31581701D20094801240DF02AFCD0E7C046E356738139
S31581701D30EA56738156190527FC5673810C57738140
S31581701D401A5773812A5773813857738110B5012A4F
S31581701D500EDD10220021586826F08EF904002100CC
S31581701D60054826F0EFF800212000FFF789FF10BDA6
S31581701D7081242406F3E7C046182073814B460A00F6
S31581701D8008B50100024826F0DDF804BC914600BD15
S31581701D90985073814B4630B51C68CE4600B5216C20
S31581701DA02448FFF7EBFF616C2348FFF7E7FFE36C8D
S31581701DB0002B0BD000212148FFF7E0FFA16C204852
S31581701DC0FFF7DCFFE16C1F48FFF7D8FF4B461E48D3
S31581701DD0996826F0B7F84B461C48C0331968FFF7E7
S31581701DE0CDFF4B461A48196BFFF7C8FF4B4619480A
S31581701DF0596CFFF7C3FF4B461748D96BFFF7BEFF88
S31581701E004B461648196CFFF7B9FF4B4680229C33B7
S31581701E10D2001968124826F095F84B46DA6D002A79
S31581701E2003D0D96D0F4826F08DF8002004BC9146F9
S31581701E3030BDC046120273811E0273812A0273817C
S31581701E40340273813D027381450273815B027381B2
S31581701E50640273816E027381780273817F027381EA
S31581701E6089027381A70273810A4B494602B50122A1
S31581701E701A701DF03FFC1FF05DFB1FF039FD1FF0DE
S31581701E8011FE1FF02BFA1DF0C0F81DF0BFF804BCCF
S31581701E90914600BDE4DC7381F0B5CE4600B5FAB0EB
S31581701EA00F00150000216822079014A81E000024D7
S31581701EB029F032FE142200210FA829F02DFE10225E
S31581701EC0AB490BA829F030FF9822002152002EA829
S31581701ED029F022FEA5420FD12C00002E0CD1A548E7
S31581701EE026F030F8002200233000009201931EF014
S31581701EF089FB0500040006009F4B1B78002B11D0CF
S31581701F0033002A000FA914A81CF072FF1CF09AF8EE
S31581701F10002F0AD1994826F015F800210BA81CF0DC
S31581701F20FDFEAAE0FFF7A0FFEAE7380022F028F865
S31581701F300028EFD17B68FF252D0406001A06190E3D
S31581701F4011431A022A401B0A0A43FF2109020B40D8
S31581701F501A434B4615001A681B68916CDB6C002B13
S31581701F6001D101214942864A0023802000055219F8
S31581701F707341002504920593049B1A0B13030293F4
S31581701F80059B029A03931B05160B0A1802980399EF
S31581701F901E432B0012184B4104210892099301208C
S31581701FA008AB32001DF096FDA84223D0802002999D
S31581701FB040010EF0B1F908AB08903200042101207E
S31581701FC009951DF087FDA84214D06E4825F0BAFF99
S31581701FD0002329001A002EA80FF026F8061E2AD093
S31581701FE016246948644225F0ADFF20007AB004BC9E
S31581701FF09146F0BD7968FF200004089DFF260A0E80
S315817020000B0613430A020240360213430A0A324010
S3158170201039001A43280029F087FE029BFF273F0467
S315817020201B021F40029B1B0A1E40029B3E431B0ED6
S3158170203033436B60CCE729000BA81CF06FFE6B688D
S31581702040280B00031A0E1F061743FF22190212046A
S315817020500A40FF2109021B0A0B403A431A434B4B34
S315817020603100ED1801232D1A019352190333120B86
S315817020700093023233001DF003FC454806F0FAFEE8
S31581702080002306001B931A93984257D114A9079877
S315817020901BF01AFD0690002867D0002C2FD020AB3C
S315817020A006AA1B780021237169239B181B7863719B
S315817020B06A239B181B78A3716B239B181C9A1B78B8
S315817020C02173100A61736072100CA072100EE37125
S315817020D00B00E072A173E1731E981F992272121818
S315817020E04B41110A22746174110C120E2375E274BC
S315817020F01A0A62751A0C1B0EA174A275E3752549AD
S31581702100254806F05DFD24A829F02EFD239C002824
S315817021100FD1069B139D002B25D020492800984707
S3158170212004001E4B21002800DB6B9E6F00231A0072
S31581702130B047109B0F9A53601A6056E724F092FF4E
S31581702140451C022128000DF015FF1B90002803D134
S31581702150134825F0F7FE99E72A0031006D001FF0CC
S3158170216037FD1A9592E70F4CDBE702246442E0E76C
S31581702170E0DC72813B037381E4DC7381D303738109
S31581702180FF1F000085037381AD037381FF0F00000C
S31581702190D50873811C0473813C04738170DB7381F0
S315817021A00604738101000080F0B5CE4600B5160035
S315817021B082B01D00012A4FDD2949586824F028FF15
S315817021C000282FD10400022E05D001001022A868A4
S315817021D025F052FF0400234B1B78002B01D1FFF7AA
S315817021E043FE1BF02FFF01A968461EF0C5FF05004F
S315817021F00120002D12D029001B4825F0A3FE019BDA
S315817022002100009A2800FFF747FE41000400490823
S31581702210164825F097FE2000441EA04102B004BCEA
S315817022209146F0BD102200216868002425F024FFB4
S315817022300700022E05D021001022A86825F01CFF08
S31581702240040039000A4825F07DFE0A4B21000A4AAE
S3158170225038001B681268D6E701204042DEE7C04627
S31581702260BE027381E4DC7381C6027381ED02738170
S3158170227011037381E0DC7381DCDC7381F0B5CE464A
S3158170228000B588B005000F00140000212022684631
S3158170229029F042FC2449280024F0BAFE00283CD05B
S315817022A00A220021380025F03AFF0100280010F03B
S315817022B06BF8061E2DD03A21380024F0C7FE002116
S315817022C0884204D00130102225F0D6FE01003000FC
S315817022D01EF0D6F8154B1860002C1AD012492800BA
S315817022E024F096FE2300124A002800D0114A20213C
S315817022F0684625F006FE5C246B462F21180024F073
S31581702300A5FE00280CD16A4601001EF0F1F80A4B31
S31581702310186008B004BC9146F0BD1EF043F9D9E748
S31581702320431C0470E9E7C04620287381DCDC738125
S31581702330E61A738108367381E0DC7381F0B589B0F2
S31581702340224C551E1F1D2A000593012302930E00F0
S3158170235000933B000194049008F0AEFC002D0CD1E3
S315817023601B4B1B68236607AA06A9206EFEF7A0FC85
S3158170237000280AD0012009B0F0BD059B10220021EA
S31581702380586825F079FE2066EDE7079B069A216EDF
S3158170239010489A1A1FF06AFF3A002900300008F037
S315817023A0D1FB0028E6D108F07BFC230005225E3341
S315817023B031001A7001230293E223DB0001940093AA
S315817023C02A003B00049808F077FCD4E7E0E6738135
S315817023D08CC9738170E77381F7B50EF01DFF0600A6
S315817023E015480DF0CBF83468B44201D10020FEBD9A
S315817023F027002100443F01203A683C394923024233
S3158170240000D11B3B4F20950700D4213800250090C1
S315817024100A4825F097FD0A4B5B59BB4204D1094B9B
S315817024200948595925F08EFD04350C2DF3D10A20B2
S315817024300DF07AF82468D7E7B7097381D309738168
S315817024403443748190C9738199EB7281F7B5012791
S315817024503E0000920193009B9E4206DB002F02D0C4
S315817024600A200DF061F80020FEBD019AB300D5589F
S31581702470012E02DD20200DF057F80F49280024F037
S315817024807EFE041E13D0002328002370A51C0DF038
S3158170249075F85C2308492370280024F070FE041EA9
S315817024A0F1D1270028000DF069F80136D3E72800AD
S315817024B00DF064F8F9E7C046EF097381F8B5050048
S315817024C0002602272B8E9E4201DBA869F8BD2B6AF6
S315817024D0EC1828237343E418A3683B420FD0E06855
S315817024E000280CD06269002A09D06368082B08D14C
S315817024F0002129F011FB6169E06829F01DFB013625
S31581702500E0E72369E91829F00FFCF4E710B50100BB
S315817025100268064B06489A4204D10B8A0120022B27
S3158170252003D0044825F00EFD002010BD7F454C4632
S31581702530FAAC73811EAD7381F0B5170087B03F48D1
S315817025401E0006F097FC7B1E02900093351D002BB2
S3158170255048DD746823782D2B42D16378702B01D036
S31581702560732B3DD1BB1E350000930835002B3ADDA8
S3158170257005AA1021286825F0B1FD163033D0009B4D
S315817025800435013B009305980126FFF7BFFF0028AC
S3158170259023D0059E002C44D06378702B41D1F3698A
S315817025A00027F3180393039B7C01E418B38D9F4234
S315817025B01DDBB3690593029B002B37D105992048A2
S315817025C025F0C0FC2900059B0098984706000100FC
S315817025D01C48731E9E4125F0B5FC300007B0F0BDD6
S315817025E00024C5E70024184B1B680593CBE7E36885
S315817025F022690193002A04D063680198F11829F041
S3158170260093FB20696269904205D0019B121A002161
S31581702610181829F081FA21690137019829F08CFA05
S31581702620C1E73000FFF74AFF0590C4E70749029872
S3158170263024F0EEFC061EC1D1CFE7C046E6E9728171
S315817026407C047381A40473818CC97381CB04738177
S31581702650F0B51600A3B01D00012A24DC784B1C68E6
S3158170266078480CF08BFF784806F004FC002832D14C
S31581702670764825F067FC2000FFF748FF002800D1D7
S31581702680D9E02000FFF71AFF04002100704825F079
S3158170269059FC29F059FB0020A0476E480CF06EFF5B
S315817026A0012023B0F0BD10220021586825F0E4FC8A
S315817026B00400022ED4D16849686824F0A9FC0028E8
S315817026C0CED1033027F038F90028E9DD210063483F
S315817026D025F038FCC4E71022002125F0CDFC0500D9
S315817026E05F4806F0C7FB061E19D024F0BBFC0200BA
S315817026F0FF2800D2FF223100280029F015FB300017
S3158170270024F0B0FC0100FF2800D2FF21280029F0B7
S3158170271013FA2A002900534825F014FCABE7524876
S3158170272006F0A8FB061E79D0010002A824F03CFCB5
S31581702730300024F097FC06004C4806F09BFB02ABF8
S315817027400200F018002A6DD0494925F0EFFB361842
S31581702750484806F08FFB021E25D002AB4649F01819
S3158170276025F0E4FB454F3618380006F083FB02AA44
S31581702770B3180193002859D0380006F07BFB1FF0FF
S31581702780F1FDFF21020E03060904134302020A407A
S315817027903B491343020AFF200002024001981A4303
S315817027A025F0C4FB3618374806F064FB021E05D047
S315817027B002AB3549F01825F0B9FB3618334806F067
S315817027C059FB021E05D002AB3149F01825F0AEFBDC
S315817027D03618304806F04EFB021E05D002AB2E49E4
S315817027E0F01825F0A3FB36182C4806F043FB071E1C
S315817027F007D002AB3900F01824F0D6FB380024F0EC
S3158170280031FC02A824F02EFC0200FF2800D2FF22A0
S3158170281002A9280029F088FA02A871E7204825F0D4
S3158170282091FB89E71F4925F081FB90E71E49019845
S3158170283025F07CFBB6E71D480CF0A0FE25E7C04667
S315817028408CC97381E00773810E0873811708738150
S315817028502509738149097381A3077381A8077381D8
S31581702860D5087381DE087381264373816808738105
S3158170287071087381880873818F0873819408738155
S315817028809C087381A3087381AC087381B2087381C4
S31581702890BC087381C2087381CB087381D208738136
S315817028A0420873817A087381C2487381FF08738184
S315817028B010B50020012A04DD01000A22586825F02E
S315817028C0DBFB02235B42181A10BD13B502240094F8
S315817028D018F04AF816BD13B50224009418F068F8FA
S315817028E016BD13B50224009418F020F916BD13B5E0
S315817028F00224009418F05CF816BD13B50224009476
S3158170290018F014F916BD13B50124009418F02CF83B
S3158170291016BD13B50124009418F04AF816BD13B587
S315817029200124009418F002F916BD0000F0B51D005F
S31581702930A9B0002305920793042A05DC0EF07EFE6A
S315817029400400200029B0F0BD01270AAB009707AAC1
S31581702950A9683C0068680FF00FFF061EF1DB0798C7
S315817029600AA9436804931AF0B5FC041E07D0330094
S31581702970049A6968174825F0E5FA0124E1E70100B0
S315817029801022E86825F078FB059B07002000052B4F
S3158170299004D010222100686925F06EFB08AB009087
S315817029A002930023019300220023390028691AF0CB
S315817029B0A1FF002807DA0096049B6A682969064890
S315817029C025F0C0FAD9E7089A099B044825F0BAFA26
S315817029D0B7E7C046280C7381540C73817F0C738161
S315817029E0F0B51D00A3B0012A06DC0024104825F03D
S315817029F0A9FA200023B0F0BD012404AB009403AA88
S31581702A00A96868680FF0B8FE061EF2DB039804A900
S31581702A1047681AF05FFC002806D033003A0069686F
S31581702A20044825F08FFAE4E71AF09CFC0400E0E78D
S31581702A30D20B7381FD0B7381F0B5CE4605680400A8
S31581702A4000B5002D06D1274825F07CFA280004BCF4
S31581702A509146F0BD280021F093FA06000120002EE0
S31581702A60F5DA300021F07AFC01001F4825F06AFA08
S31581702A700A3631D16B69FF2000041A0E190611438B
S31581702A801A0202401B0A1143FF2212021340194394
S31581702A900F2903D81022154825F054FAAA69FF2602
S31581702AA03604FF200002110E13060B4311023140CA
S31581702AB0120A0B4302401A43112A0DD96B691A0EF9
S31581702AC0190611431A0216401B0A034031431943F2
S31581702AD01122074825F036FA064825F033FA002088
S31581702AE02060B4E72A317381553173817331738173
S31581702AF08B317381CB4B738110B500291FD04318ED
S31581702B00013B1B78002B01D00A2B07D10D4A482433
S31581702B100378002B0FD0D35CA34309D100210EE03B
S31581702B2001290CD04378002BF8D001300139EFE7B9
S31581702B300029FADCF2E70029F2DC4B4259410800A0
S31581702B4010BDC0461ADF7281F0B5CE4600B505005C
S31581702B5082B00F1E0DD0FFF7CFFF041E20D0344EEA
S31581702B60002430000CF00AFDBC4206DB30000CF00C
S31581702B7005FD02B004BC9146F0BD002C02DD2D48E6
S31581702B800CF0FCFC280001340CF0F8FC280024F0D1
S31581702B9069FA2418280024F065FA01302D18E3E7C4
S31581702BA0032637422FD1402F05DD3A00290022486E
S31581702BB025F0C8F9DDE7214825F0C4F9FB171E40D9
S31581702BC0F619FF27B6103F02731E0193B44203DBD9
S31581702BD01B4825F0B7F9CCE7A300FF20EB5800041A
S31581702BE01A0E190611431A0202401B0A11433B4001
S31581702BF01943019B134A9C4200DB134A13480134E3
S31581702C0025F0A0F9E2E7402FCFDC114825F09AF93B
S31581702C10A74201DC0F48DCE77B1E295D094A9C428D
S31581702C2000DB094A0C48013425F08CF9F0E7C0467F
S31581702C304750738144507381495073810470738195
S31581702C4019707381C248738108A2738159507381D7
S31581702C5062507381E284738164507381054B4A46F5
S31581702C6004B501001860044805F0DAFF04BC91468A
S31581702C7000BDC046E8E073814D557381F0B5CE468F
S31581702C8000B5170096B01D00012A02DC012464424A
S31581702C902FE00222C549586824F0C7F9041E6CD109
S31581702CA0BE1E002E01D100F0C5FDC149A86824F071
S31581702CB0AFF9002822D1FE1E0C350127002E1FD1B7
S31581702CC04B463E00DB6D0A930A9B002B01D1012492
S31581702CD00FE00AA8FFF7B0FE0028F8D00A99002EF7
S31581702CE004D13100B34806F0F1F80100B24825F0FD
S31581702CF029F9200016B004BC9146F0BD083527002D
S31581702D0010220021286825F0B7F902900A900AA846
S31581702D10FFF792FE0028DAD0002F1FD00A9A4B4611
S31581702D20DA65012EE5D0102200216868FF2625F02C
S31581702D30A3F901000A98360443681D0E1A062A43C0
S31581702D401D0235401B0A2A43FF252D022B401A434B
S31581702D50914207D2994825F0F5F8CAE70298FFF7AC
S31581702D607DFFDEE70A00010022F0CCFE0028C0D08C
S31581702D7021F0F4FA01009248B9E7924E3368002B3C
S31581702D8003D191480CF0FAFBA1E702228F4968685A
S31581702D9024F04BF90290002850D1032F00DC75E79F
S31581702DA001001022A868012425F066F93060300090
S31581702DB0FFF742FE00289CD010220299E86825F020
S31581702DC05BF90490042F1CD13368FF200004596885
S31581702DD00A0E0B0613430A020240090A1343FF22A5
S31581702DE0120211400B431A000499306822F08AFE50
S31581702DF0041E20D021F0B2FA0100714825F0A2F8A4
S31581702E0065E710220299286925F036F93268010042
S31581702E10030055682A0E28061043FF222F021204DA
S31581702E203A4010432A0AFF252D022A4002439142D5
S31581702E30D9D267488FE7049B33605AE70222654986
S31581702E40686824F0F2F800281CD1032F00DC1DE796
S31581702E50A9683068EC6822F03AF9002804DA21F022
S31581702E607DFA01005C48C9E701002200306822F0D2
S31581702E7018FE002801DB00243BE721F06FFA010080
S31581702E805648BBE768680378732B00D0EBE0032F55
S31581702E9000DCFBE6EB68A9683068079322F017F9C6
S31581702EA002900028DBDB042F16D100230893089B40
S31581702EB000244448079A00930299494B006822F08E
S31581702EC066FDA04200DB14E721F048FA010045480F
S31581702ED025F038F801340CE708AB079A0299306807
S31581702EE022F03CF8089A80230100DB009A4202DDC9
S31581702EF011003D4882E73A4E002802D0300028F012
S31581702F0013FF2B0000241033089406933B1F049300
S31581702F102B690A931A783C2A3ED1FF2701333F02E7
S31581702F200A930A9D29783E29C1D0049BA34201DC6C
S31581702F302E4863E7002905D1069A0134A3009B5870
S31581702F400A93EEE700220AA9280025F095F82B78D6
S31581702F503F2B16D0020E0306FF211343090402028A
S31581702F600A40000A1343384018433060089B043680
S31581702F70043308930A9B5B1B002B08DC29001C48D1
S31581702F803CE70A9B01330A93F0E701330A930A9B64
S31581702F901A78202AF9D0C4E75B2A4FD144250133A8
S31581702FA00A930A9B1B785D2B26D133E0E47C73816F
S31581702FB0820D73814D557381850D7381A70D7381D3
S31581702FC0D60D7381E8E07381F20D7381620E738120
S31581702FD0650E7381980E73819B0E7381C10E738199
S31581702FE0E8DC7381410F7381DF0E7381260F7381E4
S31581702FF0050F738101300A900A980378202BF9D0D6
S31581703000002B0DD1069A0134A3009B580A93049B19
S31581703010A342C6DC0A9B19785D2900D147E787E709
S31581703020B64AD35C2B42F5D010220AA925F024F832
S31581703030089B3070013601330893E8E70A980134AA
S3158170304024F010F80A99471C3000F61923F0ACFF6A
S31581703050089BDF19A300EB1808971B690A93049BD9
S31581703060A342EBDC23E7672B00D0C1E000230893F2
S31581703070042F00DC0AE6AB680493052F03D11B7815
S31581703080732B00D002E6EB682969306802936B690D
S31581703090069322F01CF8041E01DA2000DFE6049BF9
S315817030A01B786E2B03D0732B47D1052F45D1210009
S315817030B0306822F0B0F821000A9007000AAA3068B9
S315817030C021F06CF8049B04001B786E2B31D1102291
S315817030D00021686924F0D0FF069001256D420A9A15
S315817030E0BA421CDD7B1C9B1A5A425341ED18049BD4
S315817030F01B786E2B0CD1069B9D4209D12100002233
S31581703100306821F048FE0100029805F059FDB2E65B
S3158170311021000AAA306821F041F8041EDFDA049B87
S3158170312077481B78732B4BD1691C029805F06AFD21
S31581703130A1E601235B420693CFE72100306808AB95
S31581703140069A21F00BFF089D06006E49002DDBD093
S31581703150002847D0002D45DD049B1B78762B32D114
S315817031602900FFF7C9FC3100041ECDD1042D16D17B
S315817031703368FF200004190E1A060A4319020140AA
S315817031801B0A0A43FF2109020AA80B405E491A43AA
S3158170319024F0CCFE0AA9029805F012FDA9E5AB07C9
S315817031A00DD1142D0BDC070078000AABF259C018CB
S315817031B05649043724F0BAFEBD42F5DCEAE7544835
S315817031C024F0C0FE83E5612B06D1524902000AA81C
S315817031D024F0ACFE0AA997E7732B00D056E52A0036
S315817031E04949F4E7280021F0B9F801004A4805E613
S315817031F0702B26D06C2B00D0F8E06B3B0493022F9A
S3158170320021D0AB68069300230293032F01D0EB681C
S3158170321002930699306821F05AFF041E00DA3CE762
S31581703220029B3068002B24D021000AAB029A21F0D0
S3158170323095FE0A9C0500002C09D1029A0699374899
S3158170324089E52023DAE7364B06930023E0E70028E9
S315817032500DD0002C0BDD0299324824F073FE0A9949
S315817032602800FFF771FC304824F06CFE03E62000DD
S31581703270B9E7029D20272D4E210008AA306820F0DB
S315817032800EFF01000138082800D9A9E028F02CFD2D
S31581703290090024005C00A100A800A800A800A8006D
S315817032A01FFD00222100306821F075FD049B02000C
S315817032B0AB420CDB002800D11D4A1378002B00D15C
S315817032C01C4A1D497B1B1D48C91824F03BFE0135DC
S315817032D01F2D0EDD1A4873E7049B013DAB4208DB57
S315817032E015497B1B1748C91824F02CFE002D00D177
S315817032F0C1E5089C6B1CBED1BDE5C0461ADF7281E3
S315817033005B0F738108A27381720F7381E14673813A
S31581703310790F7381930F7381980F738133AB738137
S3158170332009BF7381E50F7381CB4B7381E8E073813C
S31581703330690D7381800D73810BBF7381B20F738138
S31581703340BA0F7381D60F738121000C22306820F0F9
S315817033505FFE83680400FF2000041A0E190611436C
S315817033601A0202401B0A1143FF221202306813406F
S31581703370FF261943360421F03CFC616802000B0676
S31581703380080E0343080230400343080AFF210902ED
S31581703390084018430A9000D525E7049B08D1AB42B3
S315817033A0A7DBD4497B1BD448C91824F0CBFDA0E791
S315817033B0AB429EDBCF497B1BD048C91824F0C2FD36
S315817033C020000A990C30FFF7BFFBCD4824F0BAFD77
S315817033D08FE7C8497B1BCB48C91824F0B3FD88E7B2
S315817033E0049BAB4200DA72E4C74807E50222C749FB
S315817033F023F01BFE00281ED1A968306821F067FE74
S31581703400011E00DA2BE53068032F0ADDEA6822F0A7
S31581703410D3FA041E00DB2EE520F0A0FF0100BC4824
S3158170342065E422F04CFB041E00DB24E520F096FF58
S315817034300100B8485BE468680378682B00D09EE029
S315817034403268FF252D04FF242402B3485369190E6F
S315817034501F060F43190229401B0A0F4323401F433E
S3158170346013681A0E190611431A022A401B0A114350
S315817034702340194324F066FD3368A8485B681A0EA9
S31581703480190611431A022A401B0A23401143194314
S315817034900A0024F057FD3368A1489B681A0E1906F5
S315817034A011431A022A401B0A11432340194324F0FF
S315817034B049FD33689B48DB681A0E190611431A0257
S315817034C02A401B0A11432340194324F03BFD33687C
S315817034D095481B691A0E190611431A022A401B0A4E
S315817034E011432340194324F02DFD39008F4824F070
S315817034F029FD33688E489B691A0E190611431A0283
S315817035002A401B0A11432340194324F01BFD012FC6
S315817035102DD933688748DB691A0E190611431A0249
S315817035202A401B0A11432340194324F00BFD022FB5
S315817035301DD0336880481B6A1A0E190611431A0208
S315817035402A401B0A11432340194324F0FBFC102F98
S315817035500DD9336879485B6A1A0E190611431A02B6
S3158170356015401B0A29431C40214324F0EBFC30682B
S3158170357021F09BFB0100724824F0E4FC73E6032280
S31581703580704923F052FD041E15D101001022A868DE
S31581703590FF2524F071FD010E03060B432D040102F4
S315817035A032682940000A0B43FF21090208401843FB
S315817035B0D061FFF79EFB02226349686823F035FD6F
S315817035C00290002817D110220100A86824F0D2FD3C
S315817035D01022049005910299E86824F0CBFD049A33
S315817035E0059B00900191306808F036FB041E00DD62
S315817035F041E4FFF77EFB02225449686823F015FD8A
S31581703600041E61D1AB681B78702B27D13068270077
S3158170361021F04BFB05004E4824F094FC4D4824F074
S3158170362091FCAF4200DB26E40AAB08AA3900306808
S3158170363021F0F1FA041E05DA20F090FE0100464869
S31581703640FFF755FB0A9B3900099A01374348019365
S315817036500B9B0093089B24F075FCE2E7612B1CD1D0
S3158170366010220100E86824F085FD102202900391F2
S315817036702100286924F07EFD029A039B00900191B6
S31581703680306822F0B2F8041E01DBFFF7F4FB20F0FC
S3158170369065FE01003248FFF72AFB642B01D0FFF7E4
S315817036A0F5FA01001022E86824F0E6FC0100306822
S315817036B022F0FEF8041E01DBFFF7DDFB20F04EFEE3
S315817036C001002848FFF713FB03222749686823F016
S315817036D0ACFC00284CD14B4630681968FEF76CF803
S315817036E0002801D1FFF7C7FB20F038FE01001F4883
S315817036F0FFF784FB0BBF7381DC0F7381E30F7381DB
S31581703700E00F7381EB0F7381F80F7381E28273819E
S315817037100C107381271073814310738152107381DA
S31581703720691073817F10738196107381AD10738167
S31581703730BB107381D2107381E9107381001173810B
S31581703740171173812E1173813D00738132117381CB
S31581703750351173815011738182117381A1117381B6
S31581703760BB117381DA117381F9117381FD117381C3
S3158170377003223349686823F058FC041E1ED1022F38
S3158170378019D0042F01D0FFF781FA01001022A868A1
S3158170379024F072FC102207002100E86824F06CFC8A
S315817037A00500306808F022F92A003900306808F07F
S315817037B067F8FFF79EFA05000700F2E721490222B2
S315817037C0686823F032FC011E1ED1032F01D0FFF7EA
S315817037D05DFA3368002B01D1FFF779FA1022A86858
S315817037E024F04AFC0A900AA8FFF726F9002801D12D
S315817037F0FFF76DFA0A99306808F0ECFB041E01D068
S31581703800FFF765FAFFF775FA02220F49686823F0A8
S315817038100CFC041E01D0FFF739FA0100022F04D087
S315817038201022A86824F028FC0100306808F0A2FAFA
S31581703830FFF75FFA054B1B680A93FFF745FAC04697
S31581703840FF1573812C127381D36F7381E8E0738155
S3158170385000207047D00F0223002193424841404295
S3158170386070470020704713B50024009417F07CF8D8
S3158170387016BD0000F7B506000F0015001C005868CC
S31581703880022A0FDD9968094A042D00DD1A69FEF74F
S31581703890F5FC00232A00009339003000230017F0CD
S315817038A087F8FEBD01490A00F1E7C04608A2738117
S315817038B013B50024009417F06FF916BD13B5002463
S315817038C0009417F033F916BD10B517F0DFF910BDF6
S315817038D0F0B5CE4600B596B00E0005001C0001927B
S315817038E00022019914F0E3FC002829DB2368DA07AA
S315817038F001D4022820D09A0712D5002E10D0042721
S315817039003B4205D00A200BF00FFE2368BB43236030
S3158170391031000D4824F016FB226802239A432260F7
S31581703920502302AA0199280014F0D4FC002807D1EB
S31581703930064802A924F006FB16B004BC9146F0BD78
S3158170394001000348F6E7C046773673818C4F7381E1
S315817039507EEB7281F0B5CE4600B586B016001D003D
S315817039600190012A02DC0124644226E05C68022A05
S315817039702DD07749986823F04BFB002822D00835E3
S3158170398000262F6802227349200023F04EFB0028FF
S315817039906CD10490002F04D03B785A1E93415B42C0
S315817039A01F4003A9142011F0F3FC039A002A14D145
S315817039B0010001980EF0DEF80400200006B004BC08
S315817039C09146F0BD0C35032E04D00126D9E7002629
S315817039D03700D7E701260700D4E7049B0221002E22
S315817039E000D003210B43100005A9049314F053FCF6
S315817039F0059B0500002B03D103A811F0E0FCD4E7E9
S31581703A00002813D023F02EFB0400002F2CD0020047
S31581703A102900380023F009FB002808D0049A022374
S31581703A201A42E9D1DB1813430493E5E70400381988
S31581703A30002F19D003780024A34211D021000A22C5
S31581703A4024F01AFB04AB020029000398FFF740FFAC
S31581703A50E4E72200013404AB29000398FFF738FFAD
S31581703A60059B9C42F5DBD9E70024F9E7002F00D14D
S31581703A7079E72378692B18D011D80225632B00D06A
S31581703A8071E7002205AB1100380014F047FA041E65
S31581703A900FD03900304824F055FA210089E7732B0D
S31581703AA005D00325742BECD05DE70025E9E7012568
S31581703AB0E7E72A49059814F0B6FA03001022103305
S31581703AC00190934304D00599254824F03BFA4AE73F
S31581703AD00598244E002D24D114F0ECFA059814F033
S31581703AE0CBFB04003900059A1F4824F02BFA21007C
S31581703AF01E48B44229D81E4824F024FA002D08D0D5
S31581703B00059814F0B9FB0100B0421BD9194824F00D
S31581703B1019FA019B103300D14FE7059814F0BAFA60
S31581703B204BE7022D09D00124032D06D114F0A4FB95
S31581703B300400B04201D863425C412100059814F0BB
S31581703B40D3FACFE78442E4D00B4824F0FBF9E0E75F
S31581703B50E984738116787381BF127381D5127381EB
S31581703B60DE12738100F0FFFFFE1273811F13738162
S31581703B70B7107381311373815D13738110B50C0026
S31581703B8003782A2B10D101301022002124F074FA87
S31581703B90022C05D0042C05D0012C11D1007810BDD2
S31581703BA00088FCE70068FAE71022002124F064FAA5
S31581703BB0032CF4D80123E4005B42A3409843EEE7DB
S31581703BC00020ECE710B503782A2B05D1013010223D
S31581703BD0002124F051FA10BD242BFCD143787B2B24
S31581703BE00ED10230020013787D2B04D1002313701D
S31581703BF005F040F9EFE70132002BF4D11800EAE7BE
S31581703C000020E8E7F0B5002587B006001F00039114
S31581703C10049223F027FA0190394B5A190592682D2F
S31581703C2004D13100374824F08DF957E0EB583000D4
S31581703C30019A1900029323F0F8F9041E5ED1029855
S31581703C4023F010FA019B834258D1059B5E68002F41
S31581703C5027D10398FFF7B6FF05000498FFF7B2FFE7
S31581703C600100280023F0D4F90300052E07D830000F
S31581703C7028F02AF803080C0E12155C425C4120006C
S31581703C8007B0F0BD1C00631E9C41F8E7DC0FF6E7B8
S31581703C90DC17E41AE40FF2E75C1E1C43FAE7DC4397
S31581703CA0F8E739000398FFF769FF39000500049832
S31581703CB0FFF764FF0300052EE1D8300028F004F881
S31581703CC003070B101419ED1A6C426C41D7E7EC1A85
S31581703CD0651EAC41D3E701249D42D0DB0024CEE73B
S31581703CE001249D42CBDCF9E7EC0FDA17AB425441E4
S31581703CF0C5E7EC17DA0F9D425441C0E708358BE76B
S31581703D008CC87281AFE1728110B51C00042A1BD1F7
S31581703D10110018680DF0C6FE0300023006280ED811
S31581703D2027F0D2FF040D0D05050D05000023E2680D
S31581703D306168A068FFF766FF4342584110BD044829
S31581703D400BF01CFC0020F7E701204042F6E7C046E5
S31581703D50A1157381034B00221A60034B1A68034BBA
S31581703D601A6070472CE1738104E173811CE1738160
S31581703D70064B1A68064B1A60064B1A68064B1A6010
S31581703D80064B1A68064B1A607047C04614E17381F8
S31581703D9018E173812CE1738130E173811CE1738148
S31581703DA020E17381064B1A68064B1A60064B1A68B6
S31581703DB0064B1A60064B1A68064B1A607047C046E6
S31581703DC018E1738114E1738130E173812CE1738120
S31581703DD020E173811CE173814B4608B50BF082FB40
S31581703DE0002804D00BF058FB04BC914600BD01201D
S31581703DF04042F9E7F0B5CE46214C0600002500B564
S31581703E00A54401A8029169460EF090F80400A84273
S31581703E102DD18027FF006A46390004A80EF05CF91F
S31581703E20021E1DDC68460EF043FA164900200EF01C
S31581703E3065FA21001F231F313000994327F07CFEDC
S31581703E4022002100104824F07DF821000F4804F0EB
S31581703E50E7FE30008223DB009D4404BC9146F0BDB1
S31581703E60A81904A9A418AD1827F05EFFD3E70098A6
S31581703E702C000EF07BFA0100054824F063F8D1E737
S31581703E80F0FBFFFFD93D70817A417381A2417381C5
S31581703E908C4F7381044B1B68002B04D1034A1368C2
S31581703EA0591C1870116070472CE173811CE1738104
S31581703EB0074B002201331978002905D110063F235B
S31581703EC0800F80181840704701335218F3E7C04647
S31581703ED0ECE073810C4B30B5CE4600B51C68002C76
S31581703EE008DC0023094A5C1CD05C002808D104BC1C
S31581703EF0914630BD064B013C18780BF015FBEEE709
S31581703F000BF012FB2300EDE70CE17381ECE073811A
S31581703F1009E17381F0B501264C4CCE467642002379
S31581703F2000B5A54407900493039300254AAF7B1986
S31581703F3005930BF0B1FA030604001B0E0693444BEE
S31581703F401B68002B02D006980BF0EEFAFF231C40FB
S31581703F50032C6DD059DC002C6AD0069B7B554B4661
S31581703F609A6E3C4B52689A426AD17B1C81225B194C
S31581703F70013592009542D9D100221A704AAA9B1AAC
S31581703F804CE00138082818D827F09EFE05050517DC
S31581703F90171728282800099A0AA9079B9C18089A36
S31581703FA0200027F0C1FEA64200D92600089B013B5E
S31581703FB01C19039BA34200D20394254B1B68002BCB
S31581703FC0B3D1049B642101331800049327F014FE46
S31581703FD00029AAD12E200BF0A7FAA6E71E4823F056
S31581703FE02DF9039B3100039A1C485C1CA41B23008A
S31581703FF0009423F0A7FF2100300027F09DFD21005A
S31581704000174804F00DFE099814E00A2C01D00D2C86
S31581704010A3D1059A002313704AABD31A002B07DB01
S315817040200AAB09AA08A938000DF0D8FD0028A8DACC
S3158170403001204042CC239B009D4404BC9146F0BD37
S315817040400BF00EFB002800D18FE7F1E7D0FCFFFF64
S315817040502CBF738199F4708110270000154173818B
S31581704060A2417381F0B5CE4600B51D0016001E487B
S3158170407004F000FF1D4B00282CD00278312A29D1FB
S31581704080303A1A600024022E05D121001022686808
S3158170409024F045F804001648FA2623F053FF2000D1
S315817040A0B600FFF737FF642405000BF01BFA002872
S315817040B001D00BF0F1F93000013C23F0BFF8002CF0
S315817040C0F3D16B1C08D10B4823F03CFF012004BC53
S315817040D09146F0BD0022D4E72900074823F032FFCC
S315817040E0064B20001D60F2E7F81573812CBF738132
S315817040F00316738127167381451673818CC97381F3
S31581704100F0B5CE4600B586B014001D00B94804F0EE
S31581704110B1FE00285DD01022002123F0ADFF019001
S315817041204B469B6803930293012C27DD1022002155
S31581704130686823F0A1FF039B01900293032C1DD124
S315817041400A220021A86823F097FF0290002844D0A4
S31581704150039B834212D00100A74823F0F3FEA74840
S3158170416023F06CF8029A4B469A6014F09EFBA34832
S3158170417023F064F80BF090F90D28FBD1A0492868DB
S3158170418022F046FF041E2BD10199029A9D4823F095
S31581704190D9FE02210198FFF72DFE039B029A934265
S315817041A012D01900984823F0CDFE944823F046F832
S315817041B0039A4B469A6014F078FB904823F03EF848
S315817041C00BF06AF91B28FBD1200006B004BC91461E
S315817041D0F0BD81231B060193A2E7039B0293CDE772
S315817041E08A49286822F014FF029A041E019904D123
S315817041F0874823F0A7FE0121CCE78648002423F067
S31581704200A1FE854B019A1A60844B854A1A60854B4B
S31581704210854A1A600D22854B1A701632844B1C6042
S31581704220844B1C70844B1A70844B1C60FFF792FD13
S31581704230FFF79EFD0094013C814B824A1A600BF018
S315817042402BF9012807D00328F9D10025A7E1009B16
S31581704250009C0093F0E7E0250BF01EF906002842DA
S315817042604DD00BF019F9284249D0FF23184002002E
S315817042700700203A05921A400092A2425AD1FFF75E
S3158170428091FD0BF009F9E0220490104200D18AE089
S31581704290FF252E402840F719203E2E40C719023E31
S315817042A0B31C00D09FE00BF0F7F8E0230600009C6A
S315817042B0184224D00BF0F0F8E023009C18421ED0EF
S315817042C02E402840BF19203E3F1820382E405F224D
S315817042D01300734306002E409E190BF0DDF8E02320
S315817042E00206120E054018425DD03B063F219B0F98
S315817042F0009CDB197F190B4020339A4273D0FFF7EC
S3158170430051FD514D012300262B7022336B70009B1A
S315817043102E712033AB704E23EB70FFF7C9FD434B83
S3158170432020302871AE711B786B71FFF7D3FD009BBE
S3158170433000948DE7FFF71CFDA3E70BF0ADF8030042
S31581704340E02100061A00000E22400B422BD0049BFE
S31581704350BF18013E442B39D1384B1A68002A2BD0AD
S31581704360304B1A6860230340402B1ED19843904787
S31581704370324B00221A60012EDFDC0BF08DF8E023C0
S31581704380184210D03D060006AD0F000EEF193F257D
S315817043902F40009C2037B842B1D10BF07DF80006D2
S315817043A0000E0D2852D0009CA9E77F2303403F2B36
S315817043B0DDD101331843DAE71F4A1278824201D17F
S315817043C00122D7E7174B1B689847D4E7049B532B79
S315817043D0D1D11B4B1B491A681431551C10701D6045
S315817043E08D42C8D3C6E7049BFF241B061B0E04931C
S315817043F0C1E7C046631673816C16738150C3000022
S315817044009E167381A41673818C177381E3167381DB
S31581704410E91673812817738104E1738128E17381A9
S31581704420553D708124E17381953E708108E1738178
S315817044300CE1738109E1738110E1738114E17381F8
S3158170444048E1738134E17381ECE073810599049B52
S31581704450694E20310906090E532B00D083E0674AD5
S315817044600023307066481360664A13702322664B48
S315817044701A700200654B13321C68944202D1020095
S3158170448012321A601B6803241B1A002B4BDD604D98
S315817044907E2201342A71012B45D05D3A01346A71CD
S315817044A0022B40D08278554C203A1206120E226029
S315817044B02022AA710624032B35D0C2786020104041
S315817044C0402849D182434F48072402704020504A80
S315817044D0D071042B27D04A4D474C287920382070CB
S315817044E02D2010720824052B1DD06C7946480470D6
S315817044F0232050720924062B15D02B3001349072EB
S31581704500072B10D02734D472263C082B0BD010730E
S315817045100134092B07D0222304345373023B9373DE
S315817045205E33D37313743A4D0123671C00262B7047
S3158170453023002033A9706B705923EB702C19EE55BB
S31581704540FFF7B6FC2C4B2030E855E6701B78A370CC
S31581704550FFF7C0FC009CEAE67F2010403F28B2D16D
S3158170456001300243AFE72A4C0123002523702233A1
S3158170457063703633A170E3702571FFF799FC3378D8
S3158170458020302071A5716371FFF7A4FC049B422BC7
S3158170459000D05CE61F4B1D681F4B1B68ED1AFA260F
S315817045A06424B6000AF09EFF002801D00AF074FFD9
S315817045B03000013C22F042FE002CF3D12900019893
S315817045C027F0BAFA2A002900144823F0BBFC290087
S315817045D0134804F025FB019B124D013305D1124816
S315817045E02C60013423F0AEFCD7E501990F4823F096
S315817045F0A9FC019B2B60D0E508E173810CE1738185
S3158170460034E1738109E1738110E1738148E17381CA
S31581704610ECE073811CE1738104E173817A4173816A
S31581704620A24173818CC973816717738145167381B2
S31581704630F0B5CE461E001300033B00B582B00092E2
S31581704640012B32D80421012430680DF02BFA051E16
S315817046501BDD10220021706823F00EFD144B102291
S3158170466000211B68C318B068019323F005FD009B78
S3158170467007002000042B04D110220021F06823F05A
S31581704680FBFC019B013805D20024200002B004BCDA
S315817046909146F0BD042D02D11F605B19F2E7022DA0
S315817046A001D11F80F9E71F70F7E701246442ECE7B7
S315817046B04CE17381F0B5CE4600B51E00022A35DD18
S315817046C0042118680DF0EEF9051E34DB10220021E5
S315817046D0706823F0D1FC102204000021B06823F0A9
S315817046E0CBFC012809D1042D01D12368FDE7022D68
S315817046F001D12388FDE72378FDE7042D06D12200B9
S315817047000300013BFBD311680432FAE72218022DAC
S3158170471006D122000300013BFBD311880232FAE7EE
S3158170472023009342FCD019780133FAE70120404285
S3158170473004BC9146F0BD0120FAE70000F0B51F0078
S31581704740234BCE4600B584B01B6803920293012A2F
S315817047503BDD012421400E1E1DD01E4B1C681E4B55
S315817047601D682900102027F007FA029B2A00009005
S3158170477021002000029E22F07FFA6E43154BA41908
S31581704780029A00201C60124B1A60134B1D6004B094
S3158170479004BC9146F0BD042138680DF083F905009B
S315817047A02000002DF3DB10223100786823F064FC41
S315817047B00A4B1C68039B0419022BD2D0102231003C
S315817047C0B86823F059FC0290CBE701204042DEE7BE
S315817047D030BF738150E1738154E173814CE1738190
S315817047E0F0B5CE4600B51F0088B0042A5AD11100A3
S315817047F0012618680DF056F9041E43DB2B4D0828E7
S3158170480006D02B4D042803D02A4D022800D02A4D7C
S3158170481010220021786823F02FFC284E1022002167
S315817048203368C318B868079323F026FC366810225C
S3158170483000218619F86823F01FFC079B0200002768
S31581704840F11A8C4661465818974201D1002614E0B8
S31581704850042C1CD119680068814220D0079A049073
S31581704860009129009B1A0394D218F318012602939A
S3158170487001952300124823F065FB2A0039001148FF
S3158170488023F060FB300008B004BC9146F0BD022C69
S3158170489002D119880088DFE719780078DCE71B195F
S315817048A00137CFE701267642ECE7C046D31773818D
S315817048B0DA177381E4177381DF1773814CE1738122
S315817048C0ED1773811F18738130B5CE4600B5084CCC
S315817048D0012A05DD10220021586823F0CDFB206066
S315817048E02168044823F02EFB002004BC914630BD1C
S315817048F04CE17381BC177381F0B5CE4600B51C004F
S3158170490084B0042A32D11100012518680DF0CAF8D5
S31581704910071E19DB10220021606823F0ADFB154E4E
S31581704920102202900021A0683368019323F0A4FBC2
S31581704930102203900021E068366823F09DFB0028E1
S3158170494007D10D480AF01AFE280004B004BC9146BE
S31581704950F0BD02007A430298019B00258446634428
S315817049601900039BF01827F0DFF9EDE701256D42F9
S31581704970EAE7C0464CE1738141187381F0B5CE4642
S3158170498000B5060082B01F00022A4FD101250D4065
S315817049901ED02C4B1D682C4B1C6829002B48270078
S315817049A023F0D0FA042C24D12968294823F0CAFA35
S315817049B028480AF07BFC002806D0274F012820D191
S315817049C03B782D2B1DD16742002EE6D0ED19E4E799
S315817049D0042118680DF066F804000120002C27DB8D
S315817049E029001022786823F047FB1C4B1D684519F6
S315817049F0D3E7022C02D129881948D7E72978194833
S31581704A00D4E7102201A9380023F036FB019BBB4203
S31581704A1012D0042C04D12860002EBED02D19BCE78B
S31581704A20022C01D12880F7E72870F5E701204042F2
S31581704A3002B004BC9146F0BD024B00201D60024B52
S31581704A401C60F5E758E173815CE17381D9467381A6
S31581704A50E0467381F246738128EE73814CE17381EE
S31581704A60E6467381EC46738190B5CE4600B50120DA
S31581704A70FFF784FF04BC914690BD90B5CE4600B5D4
S31581704A800020FFF77BFF04BC914690BD37B50D00C2
S31581704A90140001A9102223F0EFFA019B0006000E83
S31581704AA028701A782D2A05D1581C1D3A002101903B
S31581704AB023F0E2FA207037BDF0B516009BB01D0069
S31581704AC0012A04DC01277F4238001BB0F0BDD04B30
S31581704AD016AC10A801270F401A78227010AA5B783D
S31581704AE06370CC4B1B689374CB4B1B68D374CB4B65
S31581704AF01A6815AB1A70CA4B1A6815231B181A7067
S31581704B00C84B1A681A231B181A80C74B1868030476
S31581704B101B0C0693002F35D16B6868681B782370E0
S31581704B2022F0A0FA012837D96B685B786370022E00
S31581704B3028D010AA13239B1810A91A0012235B1868
S31581704B40A8681900FFF7A2FF032E1BD0152210ABA0
S31581704B50D21815A9E868FFF799FF042E12D0102292
S31581704B600021286923F088FA1A2310AA9B181880C5
S31581704B70052E07D010220021686923F07DFA03047F
S31581704B801B0C069310AB1327FF183B781F2B05D987
S31581704B90A64823F0D7F995E76770C8E707F09EFABC
S31581704BA023780590692B68D1022E2BD010AB3D7876
S31581704BB09C7CAC4229D9002716AA954B117819701D
S31581704BC052785A7010AA12239B181A78914B1A60D0
S31581704BD010AA13239B181A788F4B1A6015AB1A7803
S31581704BE08E4B1A6010AA15239B181A788C4B1A60F3
S31581704BF010AA1A239B181A888A4B1A608A4B069AAE
S31581704C001A6061E71F250024D3E710AB1627172694
S31581704C10FF18F61817AA00963B002100059807F031
S31581704C20C5FA002825D1179B2100059807933B78F3
S31581704C3008933378099307F0EDFA210007000598F8
S31581704C4007F07AFB7A4E002800D07A4E21000598BB
S31581704C5007F02AFB784B2C2800D1784B03932100DF
S31581704C60099B029601970093079A089B744823F0D3
S31581704C7069F901342406240E9BE7722B54D110AB4B
S31581704C8000279C7C15AB10AA1D7813239B181B7863
S31581704C90A34217D290E710AB1A26F61801235B420E
S31581704CA02A00338021003300059807F021FA002805
S31581704CB021D001272A002100624823F043F901356A
S31581704CC02D062D0E10AB5B7DAB42E4D210A912225C
S31581704CD0521810A81178132212181278914206D0A0
S31581704CE015AA12789A4202D0574823F02BF90134CB
S31581704CF02406240EC6E710AA12239B1810A91A78C7
S31581704D0013235B181B789A4204D115AB1A784B7DA5
S31581704D109A4204D02A0021004C4823F013F9318835
S31581704D204B4823F00FF9CAE7772B2AD110AB0027AE
S31581704D309C7C012615AB10AA1D7813239B181B78B2
S31581704D40A34210D238E72A002100059807F0E9F9C5
S31581704D50002805D037002A0021003E4823F0F2F85A
S31581704D6001352D062D0E10AA1A239B1810A915220E
S31581704D701B8852181278AA42E5D201342406240E71
S31581704D80D8E76D2B70D110AB00279C7C15AB10AA20
S31581704D901D7813239B181B78A3421AD20CE717AE82
S31581704DA0002333802A0033002100059807F0A0F98B
S31581704DB0002818D0284823F0C5F8012721002748F4
S31581704DC023F0C0F82900264823F0BCF801352D065A
S31581704DD02D0E152310AA9B181B78AB42DFD2013496
S31581704DE02406240ED2E7338810A9069A0598934330
S31581704DF01A225218069912880A40210013432A00F2
S31581704E00338007F08EF90028E0D01648D3E7C04684
S31581704E1070E1738164E1738160E1738178E173819B
S31581704E2074E1738168E173816CE173818518738133
S31581704E307F187381770F73815618738152187381B6
S31581704E40B2187381F9187381CB4B73812819738169
S31581704E504119738147197381741973818F1973819C
S31581704E601D1973819A19738102228B49200022F050
S31581704E70DCF8002800D0FEE015AB1B78052B05D831
S31581704E80152310AA9B181B78052B04D983480127F3
S31581704E9023F058F818E610AB07009D7C01230C931C
S31581704EA015AB10AA1C7813239B181B78AB4215D2AD
S31581704EB082E617AA6300D31829002200059807F0A5
S31581704EC017F9002807D0220029007548012723F099
S31581704ED039F800230C9301342406240E152310AA65
S31581704EE09B181B780B93A342E3D20C9B002B06D1A4
S31581704EF001356C482D0623F025F82D0ED0E715ABBC
S31581704F001B78109300230793109B079A934233D88B
S31581704F100B9B934230D3530017AA9E5A079B6248C4
S31581704F20DB000A930A9A614BD25A08920A9A0899B7
S31581704F309B1832005B6823F005F8331201221A4000
S31581704F405B4B0E920F9301D05A4B0F93B30901228B
S31581704F501A40730B119201221A40574B12920A9A78
S31581704F609B18139300230993139B099A9B889A42E2
S31581704F7008D34C4822F0E6FF079B01330793062B33
S31581704F80C2D1B5E7099A0C230A9953434A4A4B48C9
S31581704F908C58E4186388A18899400B0009043340C2
S31581704FA0090C0D930D9A089B22F0CCFF089B6088A3
S31581704FB0002B25D106281AD18122414B920132408C
S31581704FC0402A05D080213F4B89018A4200D13E4BD0
S31581704FD001930D22129B06213C480093119B22F06E
S31581704FE0B1FF304822F0AEFF099B0133BBE7082839
S31581704FF02DD101000F9B0E9A354822F0A3FFF0E761
S31581705000089B2188042B10D1002820D1A388314A8E
S315817050103340012B03D0304A022B00D12F4A3048BE
S315817050200092002222F08EFFDBE7089B052B0ED1C2
S3158170503000280CD1A388274A3340012B03D0264AF6
S31581705040022B00D1254A009200222648EAE7218860
S3158170505081420BD10100244822F074FF63880D9937
S31581705060A2682248194122F06DFFBAE702002048F2
S3158170507022F068FFF2E702221E49200021F0D5FF57
S31581705080071E00D01EE5022E02D107F063F893E564
S31581705090A86806F0EFFF8FE5B3197381B61973812E
S315817050A0F9187381CB4B7381FA197381F4C8728144
S315817050B0291A7381241A7381D4C372812E1A7381CA
S315817050C0C89373815E1873815A187381411A73817B
S315817050D0701A738161187381811873816C187381E9
S315817050E08C1A7381AB1A7381CD1A7381DC1A7381B1
S315817050F0D41A7381443D7381F7B5170001901E00F0
S315817051000D000A225868013F13490CF04FFA331D7E
S31581705110041E00931DD04368BB421ADB012D02D158
S315817051208068002814D00D4E3368002B05DA12F092
S3158170513097F8002808DD00233360E4683A00009B05
S3158170514029000198A04703E005480AF017FA012063
S31581705150FEBD01204042FBE734BF73814CC0738131
S31581705160B91E738170B505000E0012F029F8041E00
S3158170517005D12900084822F0E5FE200070BD002E79
S3158170518001D000234361200011F08CFF43425841C6
S3158170519040420440F1E7C0466C3D7381044B012166
S315817051A010B51868FFF7DEFF4342584110BDC046FF
S315817051B04CC07381F0B595B0029200212C2209A85A
S315817051C00493012426F0A8FCBB4B00211868FFF7D5
S315817051D0C9FF0690002808D0002325000193029B01
S315817051E0002B00DDE6E001246442200015B0F0BD9D
S315817051F0049BAE00B1499F19386821F009FF041EDE
S3158170520057D16B1C043607930100079A09A8029B34
S315817052109B1A0C220393049B9B19059326F07CFCA5
S31581705220039BA34202DC079B1D19C3E0059BA50066
S31581705230A3495E19306821F0EBFE071E11D1039ADE
S31581705240A31C9A42CFDD01000A227068033422F0D2
S3158170525013FF0A2209903900B06822F00DFF0A9077
S31581705260DEE79849306821F0D3FE0028DBD1039AB6
S31581705270631C9A42B7DD09AE0122337A04359249AD
S3158170528013433372059B5D19286821F0C1FE00288E
S3158170529005D1337A0222134333720234C0E78B49C4
S315817052A0286821F0B5FE00289DD1337A0222934376
S315817052B0F2E702228649386821F0B7FE041E71D161
S315817052C0386821F0CFFE03286CD13B689B781A0031
S315817052D0313A05921206120E032A63D86A1C303B44
S315817052E00792DD00079909AB029A0436281D1818B2
S315817052F0521A21000392049A9619082226F00CFC00
S31581705300039B012B00DC6EE70A222100306822F0B4
S31581705310B3FE09AB5D1968600125AF006849F41960
S31581705320206821F075FE00280FD1059B09AA0121FD
S315817053306D180133DB00D3181A7A0A431A72039BEC
S315817053409D42EADB079B5D1934E05E49206821F056
S315817053505FFE0028F6D1039A6B1C9A4200DC42E705
S31581705360059B022204375849F7195C1C09ABE40086
S3158170537038681C19237A1343237221F049FE002859
S3158170538005D1237A0422134323720235D7E74F4915
S31581705390386821F03DFE002800D024E7237A042264
S315817053A09343F1E74B49386821F032FE002861D189
S315817053B001350190029B9D4200DA19E7464809AD95
S315817053C00AF0DCF86B68002B68D044480AF0D6F88E
S315817053D0434C09982200C10D400221F0E3FB4148FC
S315817053E00AF0CCF868682200C10D400221F0DAFB20
S315817053F02B7ADA0706D535499B0700D532493A4863
S3158170540022F0A0FD0024E700661CEB193100DB68F1
S31581705410002B47D03548EF1922F094FDF300F868D8
S31581705420EB182F4A1B7AC10D4002DB0700D5304A33
S3158170543021F0B8FB0134E4002C19237A9A0707D539
S31581705440224A5B0700D5204A31002A4822F07AFD2C
S315817054503400042ED7D1019A2900069810F072FE75
S31581705460041E23D1019B022B00D0BEE622480AF08E
S3158170547085F8BAE62149386821F0CAFD002803D13A
S3158170548001350123019395E71D49386821F0C0FDE7
S31581705490002800D0A7E601350223F3E719480AF000
S315817054A06DF8A5E7184822F04DFDC3E7174801242A
S315817054B00AF064F899E6C0464CC07381D61B738135
S315817054C0DB1B7381DF1B7381A9987381740273816E
S315817054D0E51B7381F63C7381E81B7381021C7381B2
S315817054E0CB4B7381191C73814C1C7381731C7381B3
S315817054F0D01B7381981C7381B51C7381E33C738156
S31581705500397873812F1C7381841C7381ED1C73812F
